:1010B60020202D20202D20200020203A20203A20FC
:1010C600200054454D503A25642C48554D493A2543
:1010D600640D0A005556204F4E0D0A005556204FF6
:0510E60046460D0A0062
:0211CE00C10955
:10038200D2AF1212F212132712144612133E1200A7
:100392000E1212B812142712100C7FF47E011212E0
:1003A2005D755F0112143F8F2CE52C700302056B03
:1003B200B401200560E56075F0038485F060E560B6
:1003C2006003755F01E4F561F55DE5606402600359
:1003D200755F01E52CB4021AE560B4010B0561E515
:1003E2006175F0078485F061E560B40205055D532F
:1003F2005D03E52C640360030204A8E560640170F8
:100402004BE561B407005037900411F828287302B5
:10041200042602042A02042E0204320204360204D2
:100422003A02043E15108017151180131512800F21
:100432001516800B1513800715148003E4F51512A9
:1004420007F9120B347FFA7E0012125DE560640236
:100452007054E55D14601A1460271460342403702C
:100462003E121455EF24FFFFEE34FFFE121381807B
:100472002E12145AEF24FFFFEE34FFFE1213938064
:100482001E12145FEF24FFFFEE34FFFE1213A5804D
:100492000E121464EF24FFFFEE34FFFE1213B77F37
:1004A200FA7E0012125DE52C64046003020558E531
:1004B200606401704BE561B4070050379004C5F8E1
:1004C2002828730204DA0204DE0204E20204E602CD
:1004D20004EA0204EE0204F20510801705118013EB
:1004E2000512800F0516800B051380070514800383
:1004F200E4F5151207F9120B347FFA7E0012125D31
:10050200E56064027050E55D1460191460251460A2
:10051200312403703A121455EF2401FFE43EFE1217
:100522001381802B12145AEF2401FFE43EFE1213B2
:1005320093801C12145FEF2401FFE43EFE1213A508
:10054200800D121464EF2401FFE43EFE1213B77F04
:10055200FA7E0012125DE52C640B6005E52CB40CEA
:1005620008E560B4010312100CE5606007640160E5
:1005720003020653E52C64077003020653E52C645C
:10058200087003020653E55F603BE4F55F12000367
:100592007BFF7A1079B67D017F011212187BFF7AF8
:1005A2001079BF7D017F021212187B257D107F0119
:1005B200121402E4FB7D0F7F021214027B437D10B2
:1005C2007F02121402E52A6015E52C6403600FE530
:1005D2002C64046009E4F52A1211F4120662E54162
:1005E200606FE4F541120F4C8F2BE52B6053D2095B
:1005F200754300856444754500856246754B02ABC0
:1006020046AA457D0E7F011212D5754B02AB44AA54
:10061200437D0D7F021212D5754AFF754B10754C42
:10062200C885434D85444E85454F8546507B007AAB
:1006320000792D1200827B007A00792D12130D8031
:1006420002C20930090BAF647E00AD627C00120D5C
:1006520051E560640260030203A6120A450203A682
:03000B00020C02E2
:100C0200C0E0C0F0C083C082C0D075D000C000C0B8
:0D0C120001C002C003C004C005C006C00739
:100C1F00758A00758CDC0523E523700205220525F6
:100C2F00E525700205240527E5277002052605290D
:100C3F00E52970020528C3E5239432E5229400408C
:100C4F001E752200752300E55C70047F0180027F12
:100C5F00008F5CE55E70047F0180027F008F5EC3B2
:100C6F00E5259403E52494004009752400752500BB
:100C7F00120DD6C3E527940AE52694004009752680
:100C8F0000752700752A01C3E5299414E5289400FF
:0B0C9F0040097528007529007541010F
:100CAA00D007D006D005D004D003D002D001D0009E
:0B0CBA00D0D0D082D083D0F0D0E03248
:10130D00C2AC1209506010F5993099FDC299740163
:0A131D0029F9E43AFA80EBD2AC2281
:03002300020E4C7E
:100E4C00C0E0C0F0C083C082C0D075D000C000C06C
:0D0E5C0001C002C003C004C005C006C007ED
:100E6900309827859942E542B4230E7BFF7A1079A1
:100E7900DA12130D1214698011E542B4240C7BFFB8
:0C0E89007A1079E212130D12146CC2985A
:100E9500D007D006D005D004D003D002D001D000B1
:0B0EA500D0D0D082D083D0F0D0E0325B
:09140C00D2A0D2A1C2A0C2A1220B
:07143800C2A0D2A1D2A02244
:02117E00AD07BB
:10118000E4FB74807E00A803088006CEA2E713CE9D
:1011900013D8F8FFEDF582EF558224FF92A0D2A17B
:0611A000C2A10BBB08DC3C
:0111A6002226
:10127C00E4FFD2A0FED2A130A00D7480A806088095
:0D128C0002C313D8FC4207C2A10EBE08E841
:011299002232
:0A13EE00EF24FF92A0D2A1C2A122B9
:0B13D700D2A0D2A1A2A0E433FFC2A16B
:0113E20022E8
:10123B008F1E8D1F12140C7FA012117E1213D7AFAD
:10124B001E12117E1213D7AF1F12117E1213D7026B
:02125B00143845
:02111E008F71CF
:1011200012140C7FA012117E1213D7AF7112117E10
:101130001213D712140C7FA112117E1213D71212A0
:0D1140007C8F727F011213EE121438AF7213
:01114D00227F
:0711D00005620000000000B1
:081415007F247ED9DEFEDFFC1E
:01141D0022AC
:1012B800C2A4121415D2A47F17DFFEA2A4E433FF40
:0C12C80020A403D547FA30A403D547FA50
:0112D40022F7
:10114E00E4FFFE7D6420A402DDFBED60227C0FDC5B
:10115E00FE30A40D7480A806088002C313D8FC428A
:0F116E00077D6430A402DDFBED60040EBE08D4E3
:01117D00224F
:100F4C001212B8C2AFE4FA12114E74622AF8A60754
:100F5C000ABA05F3D2AF7A17DAFEE5622563FFE42D
:100F6C0033FE7C00EF2564FFEC3EFEEF2565FFECC5
:100F7C003EFEEFB56608ECB506047B018002E4FB8F
:020F8C00AF03B1
:010F8E002240
:0E13C9008C88868482808A8D89878583818BBB
:0911D7000710180A1E090D35036A
:05144600C2B5C2B62290
:020EB000A90790
:100EB200D2B5E4FB74017E00A803088005C333CEDB
:100EC20033CED8F9FFE9F582EF558224FF92B4D2EE
:100ED200B6C2B60BBB08DDE4FB74017E00A80308B2
:100EE2008005C333CE33CED8F9FFEDF582EF5582BC
:0E0EF20024FF92B4D2B6C2B60BBB08DDC2B567
:010F000022CE
:020F0100A9073E
:100F0300E4FDD2B5FB74017E00A803088005C3335A
:100F1300CE33CED8F9FFE9F582EF558224FF92B4A0
:100F2300C2B6D2B60BBB08DDE4FBD2B6C2B630B450
:100F33000D7401A803088002C333D8FC42050BBB20
:080F430008E8C2B5C2B4AF0515
:010F4B002283
:10100C00E4FD7F8E120EB0E4FCEC9013C993FF74D8
:10101C00102CF8E6FE75F00A12092EC454F0FDEE01
:10102C0075F00A12092EAEF0ED2EFD120EB00CBCAE
:09103C0007D77D807F8E020EB003
:1011F400E4FCEC9013D093FF120F01EFC4540F756D
:10120400F00AA4FEEF540F2EFE74102CF8A6060C60
:03121400BC07DF35
:0112170022B4
:06143F007877E6FFE4F6F9
:011445002284
:10135500E4FF2090010F2091027F0220B2027F035B
:0513650020B3027F042B
:01136A002260
:100DD6008573741213558F73E5747026E57324FEBC
:100DE6006010146013146016240370167877760169
:100DF600801078777602800A787776038004787791
:100E06007604E574B40309E573B4030478777605CC
:100E1600E574B40409E573B4040478777606E573DB
:100E26007023E57424FE600F14601114601324030C
:100E3600701378777609227877760A227877760B98
:050E4600227877760C14
:010E4B002284
:081430000705070000000000A1
:0613E300C2A58F80D2A715
:0413E9007F2CDFFE78
:0113ED0022DD
:08141E007F047E92DEFEDFFC7C
:0114260022A3
:0A13F800C2A61213E3C2A70213E914
:10129A00CFCDCFCECCCE1209A87C007D0A1209A8E8
:0412AA00ED2430FF00
:0A12AE00D2A61213E3C2A70213E94F
:10136B00AE07BE0104ED148006BE0209ED243F4416
:06137B0080FF1213F822AE
:101327007F381213F87F0C1213F87F061213F87F19
:07133700011213F802141E5D
:0A140200AC0312136BAF040212AE2C
:061218008B478A4889495A
:10121E0012136BE4FEAB47AA48A9498E8275830070
:0C122E00120969FF60061212AE0E80E982
:01123A002291
:0C10EB007F0AEA24FFFDE434FFFC7E00D5
:0810F7008E4C8F4D8C4E8D4F85
:1010FF007F017E00E4FBEBC3954FE54E6480F874EF
:0E110F008098500AAC4CAD4D1209960B80E84A
:01111D0022AF
:0412D5008A498B4A6D
:1012D90012136BAA4BEAD39400400D1210EBAC49E0
:0812E900AD4A12129A1A80EDC1
:0112F10022DA
:100FD20012136BC3EA64809480400B7F2B1212AE13
:100FE2008A1C8B1D800E7F2D1212AEC3E49BF51D51
:100FF200E49AF51CAA1BEAD39400400D1210EBAC44
:091002001CAD1D12129A1A80EDBA
:01100B0022C2
:041045008A698B6ABF
:1010490012136BAA6BEAD3940040297F101210ED9A
:10105900AC69AD6ACFCDCFCECCCE1209A8EF540F73
:10106900FEC3940AEE5004243080022437FF121282
:04107900AE1A80D15A
:01107D002250
:04107E008A6E8B6F7C
:1010820012136BAA70EAD394004028EA24FFFDE40D
:1010920034FFFC7F027E001210F7AC6EAD6FCFCD35
:1010A200CFCECCCE1209A8EF54012430FF1212AEDB
:0310B2001A80D2CF
:0110B5002218
:10000E007F401213F8E4FEEE90143093FF1212AEFE
:04001E000EBE08F317
:0100220022BB
:080003007F011213F802141E24
:05144B007F180213F8F8
:051450007F1C0213F8EF
:10125D00EF4E601A787576020876C7787616E670C6
:0E126D00FA787516E670F4EF1F70E51E80E249
:01127B002250
:1011E000020A001E020E00140208003C020C002835
:09142700D295D294D296D29722FC
:100D5100E50B2401FBE4350AFAD3EF9BEE9A501020
:100D6100E5092402FBE43508FAD3ED9BEC9A400433
:100D7100C2948013E50B24FFFBE50A34FFFAC3EFAD
:100D81009BEE9A5002D294E50F24FFFBE50E34FF4F
:100D9100FAC3EF9BEE9A5004C2958012E50F24012D
:100DA100FBE4350EFAD3EF9BEE9A4002D295E50DA6
:100DB10024FEFFE50C34FFFEC3ED9FEC9E5003C201
:100DC1009622E50D2402FFE4350CFED3ED9FEC9E47
:050DD1004002D2962251
:03146900C2972205
:03146C00D29722F2
:10138100D3EF9463EE940040047E007F638E0A8F56
:021391000B222D
:10139300D3EF9463EE940040047E007F638E0E8F40
:0213A3000F2217
:1013A500D3EF9463EE940040047E007F638E088F34
:0213B50009220B
:1013B700D3EF9463EE940040047E007F638E0C8F1E
:0213C7000D22F5
:05145500AE0AAF0B22FE
:05145A00AE0EAF0F22F1
:05145F00AE08AF0922F8
:05146400AE0CAF0D22EB
:10133E005389F0438901E4F58A758CDCC28DD28C19
:07134E00D2A9D2AFC2B922FF
:1012F2007598504389205389EF758DFA758BFA439F
:0B1302008780D28EC299C298D2AC2224
:100F8F00202000202020004D6F6E00547565005703
:100F9F0065640054687500467269005361740053AC
:100FAF00756E0057656E00545F483A202020545FDD
:100FBF004C3A202000485F483A202020485F4C3AA6
:030FCF00202000DF
:0311F000015B633D
:10066200E560B40118E55CB40113E561700F7BFF2E
:100672007A0F798F7D017F011212188011E510FB2C
:100682003395E0FA754B027D017F011212D5E560C8
:10069200B40119E55CB40114E561B4010F7BFF7A82
:1006A2000F798F7D047F011212188011E511FB333F
:1006B20095E0FA754B027D047F011212D5E560B414
:1006C2000119E55CB40114E561B4020F7BFF7A0FF6
:1006D200798F7D077F011212188011E512FB339585
:1006E200E0FA754B027D077F011212D5E560B40175
:1006F20012E55CB4010DE561B403087BFF7A0F7962
:10070200928061E51614B40700506090071B75F0E3
:1007120003A4C58325F0C58373020730020738029C
:1007220007400207480207500207580207607BFF92
:100732007A0F7996802E7BFF7A0F799A80267BFF3B
:100742007A0F799E801E7BFF7A0F79A280167BFF3B
:100752007A0F79A6800E7BFF7A0F79AA80067BFF3B
:100762007A0F79AE7D0A7F01121218E560B4011981
:10077200E55CB40114E561B4040F7BFF7A0F798F55
:100782007D017F021212188011E513FB3395E0FA06
:10079200754B027D017F021212D5E560B40119E5A5
:1007A2005CB40114E561B4050F7BFF7A0F798F7D8C
:1007B200047F021212188011E514FB3395E0FA75DA
:1007C2004B027D047F021212D5E560B40117E55C8D
:1007D200B40112E561B4060D7BFF7A0F798F7D07B4
:1007E2007F02021218E515FB3395E0FA754B027D84
:0707F200077F021212D5225D
:1007F900C3E510648094805003751063D3E51064D9
:100809008094E34003E4F510C3E5116480948150BA
:100819000375110CD3E5116480948C4003751101A3
:10082900E51164016023E5116403601DE5116405A8
:100839006017E51164076011E5116408600BE511A3
:10084900640A6005E511B40C17C3E512648094814C
:10085900500375121FD3E5126480949F4072806D16
:10086900E51164046011E5116406600BE511640982
:100879006005E511B40B17C3E51264809481500338
:1008890075121ED3E5126480949E4044803FE511A1
:100899006402703CE51075F00412092EAFF0EF7098
:1008A90017C3E51264809481500375121DD3E512B4
:1008B9006480949D401A8015C3E512648094815028
:1008C9000375121CD3E5126480949C4003751201D0
:1008D900C3E513648094805003751317D3E513643B
:1008E9008094974003E4F513C3E514648094805021
:1008F9000375143BD3E514648094BB4003E4F514F9
:10090900D3E515648094BB4003E4F515C3E516648B
:100919008094815003751607D3E516648094874047
:05092900037516012218
:100B3400E510FB3395E0FA754B027D017F0112123B
:100B4400D5E511FB3395E0FA754B027D047F011264
:100B540012D5E512FB3395E0FA754B027D077F0150
:100B64001212D5E51614B407005060900B7D75F091
:100B740003A4C58325F0C58373020B92020B9A026A
:100B84000BA2020BAA020BB2020BBA020BC27BFF2E
:100B94007A0F7996802E7BFF7A0F799A80267BFFD5
:100BA4007A0F79B2801E7BFF7A0F79A280167BFFC1
:100BB4007A0F79A6800E7BFF7A0F79AA80067BFFD5
:100BC4007A0F79AE7D0A7F01121218E513FB339573
:100BD400E0FA754B027D017F021212D5E514FB3356
:100BE40095E0FA754B027D047F021212D5E515FBE0
:0E0BF4003395E0FA754B027D077F020212D5A1
:100A4500E55F6023E4F55F1200037BFF7A0F79B65B
:100A55007D017F011212187BFF7A0F79C47D017F1A
:100A650002121218755B63E55D655B602012000379
:100A75007BFF7A0F79B67D017F011212187BFF7A11
:100A85000F79C47D017F02121218855D5BE55D70EB
:100A950013E55E700F7BFF7A0F798F7D057F01125D
:100AA50012188011121455AA06AB07754B027D0565
:100AB5007F011212D5E55DB40113E55E700F7BFF72
:100AC5007A0F798F7D0C7F01121218801112145A3A
:100AD500AA06AB07754B027D0C7F011212D5E55DA9
:100AE500B40213E55E700F7BFF7A0F798F7D057F6A
:100AF50002121218801112145FAA06AB07754B0279
:100B05007D057F021212D5E55DB40311E55E700D1A
:100B15007BFF7A0F798F7D0C7F0202121812146405
:0E0B2500AA06AB07754B027D0C7F021212D59B
:010B3300229F
:03000000020CC52A
:0C0CC500787FE4F6D8FD758177020D0CF5
:10092E00C2D530F707B2D563F0FF05F030E70CB251
:10093E00D5F4048463F0FF05F080018430D502F411
:02094E00042281
:10095000BB010689828A83E0225002E722BBFE02A5
:09096000E32289828A83E49322D8
:10096900BB010CE58229F582E5833AF583E0225043
:1009790006E92582F8E622BBFE06E92582F8E2228D
:0D098900E58229F582E5833AF583E49322A7
:10099600EF8DF0A4A8F0CF8CF0A428CE8DF0A42E75
:0209A600FE222F
:1009A800BC000BBE0029EF8DF084FFADF022E4CC33
:1009B800F875F008EF2FFFEE33FEEC33FCEE9DECFC
:1009C800984005FCEE9DFE0FD5F0E9E4CEFD22ED42
:1009D800F8F5F0EE8420D21CFEADF075F008EF2F8C
:1009E800FFED33FD4007985006D5F0F222C398FD7D
:0509F8000FD5F0EA221A
:10002600E556244AF8E60556227847300702784A0C
:10003600E475F001120A0F0209502000EB7F2ED260
:10004600008018EF540F2490D43440D4FF30040BB2
:10005600EF24BFB41A0050032461FFE55760021570
:1000660057055AE55A7002055930070D7847E47569
:10007600F001120A0FEF0209FD0211A77403D2075D
:100086008003E4C207F5568B478A488949E4F55749
:10009600F559F55AE55760077F2012006180F5751E
:1000A60058FFC201C200C202C203C205C206C2088C
:1000B60012002FFF700D3007057F00120072AF5A35
:1000C600AE5922B4255FC2D5C20412002FFF24D038
:1000D600B40A00501A75F00A785730D50508B6FFED
:1000E6000106C6A426F620D5047002D20380D924C0
:1000F600CFB41A00EF5004C2E5D204020272D20154
:1001060080C6D20080C0D20280BCD2D580BAD205C9
:1001160080B47F201200612002077401B5570040A9
:10012600F1120026FF12006102009AD208D2068060
:1001360095120026FB120026FA120026F94A4B7089
:100146000679437A037BFF20022EE557602A7E005C
:100156008E8275830012096960060EEE655870F08E
:10016600C2D5EBC0E0EAC0E0E9C0E0EE1202B9D0C9
:10017600E0F9D0E0FAD0E0FB120950FF60AAEBC02C
:10018600E0EAC0E0E9C0E0120061D0E02401F9D065
:10019600E03400FAD0E0FBE5580460DCD558D9809D
:1001A600877BFF7A0279B5D202809C79108002792A
:1001B60008C206C2088008D2D5790A8004790AC224
:1001C600D5E558047002F558E4FAFDFEFF12002644
:1001D600FC7B08200113120026FD7B1030000A125A
:1001E6000026FE120026FF7B20EC3382D592D550E6
:1001F60013C3E43000069FFFE49EFEE42001039D46
:10020600FDE49CFCE4CBF8C201EC700CCFCECDCC67
:10021600E824F8F870F38017C3EF33FFEE33FEEDF2
:1002260033FDEC33FCEB33FB994002FB0FD8E9EBD3
:10023600300105F8D0E0C448B201C0E00AEC4D4EEA
:100246004F78207B0070C2EAB5580040BCC0E0126F
:1002560002BBD0F0D0E0200104C4C0E0C4B201C0AB
:10026600F012004AD0F0D5F0EB02009A120A1F01F4
:10027600375301B15801084C01044201B54F01BD85
:0F0286004401BD49011D4301C35501A74601A70E
:100295004501A747036350010C2D01102E01332B97
:1002A500011423013120034C2A00CC480000012B06
:1002B5003F3F3F00790AA2D5200314300509B91044
:1002C500020404B9080104A2D52006025001042045
:1002D50002689202B557005034C0E07F2030031900
:1002E5007F30A20272067205500F120312C202C2BB
:1002F50006C205C2087F30800F300503E9C0E01251
:100305000061300503D0E0F9D0E0B557CC300517D2
:100315007F30B9100C1200617F583004077F788058
:1003250003B908031200613002057F2D0200617FC9
:10033500202008F87F2B2006F322920280CF286E1A
:10034500756C6C2900D2011200263001F8C20178C3
:100355005730D50108F60200CC2D504349581200FC
:10036500262403B405004001E490035E9312005275
:0D037500743A120052D2037557040201B110
:100CD100020382E493A3F8E493A34003F68001F2B4
:100CE10008DFF48029E493A3F85407240CC8C33324
:100CF100C4540F4420C8834004F456800146F6DFF3
:100D0100E4800B01020408102040809011CEE47EA3
:100D1100019360BCA3FF543F30E509541FFEE493E7
:100D2100A360010ECF54C025E060A840B8E493A3AE
:100D3100FAE493A3F8E493A3C8C582C8CAC583CAD9
:100D4100F0A3C8C582C8CAC583CADFE9DEE780BE91
:0111F30000FB
:1009FD00BB010689828A83F0225002F722BBFE01D9
:020A0D00F322D2
:100A0F00FAE6FB0808E6F925F0F618E6CA3AF622E8
:100A1F00D083D082F8E4937012740193700DA3A366
:100A2F0093F8740193F5828883E47374029368607A
:060A3F00EFA3A3A380DF7A
:1011A700EFB40A07740D1211B2740A309811A89996
:1011B700B8130CC2983098FDA899C298B811F630A8
:0711C70099FDC299F5992280
:00000001FF
